:100000000C9438000C944A000C944A000C944A005A
:100010000C944A000C944A000C944A000C944A0038
:100020000C944A000C944A000C944A000C944A0028
:100030000C944A000C944A000C944C000C944A0016
:100040000C944A000C944A000C944A000C944A0008
:100050000C944A000C944A000C944A000C944A00F8
:100060000C944A000C944A00244750475341000026
:1000700011241FBECFEFD4E0DEBFCDBF21E0A0E052
:10008000B1E001C01D92A130B207E1F70E949F00CC
:100090000C944C010C9400001F920F920FB60F921B
:1000A00011248F93809100018160809300018F91D2
:1000B0000F900FBE0F901F901895E0ECF0E090812C
:1000C00095FFFDCF8F778093C60008958091C00083
:1000D00088231CF48091C600089580E00895CF9392
:1000E000DF93EC018881882331F021960E945D0026
:1000F00089918111FBCFDF91CF910895E1E6F0E086
:1001000080E88083108283E390E09093C500809321
:10011000C40088E18093C1008EE08093C20015B8CE
:100120008FE084B981E088B983E087B98FED87BD1E
:1001300082E084BD85E085BD16BC78940895CF9398
:10014000DF93CDB7DEB7C058D1090FB6F894DEBF44
:100150000FBECDBF0E947E0081E20E945D00F12CA7
:10016000712C0F2EF3E0CF2EF02DA12C912C00E05E
:1001700010E0E12CBB24B3940F2EF3E06F2EF02D92
:10018000D12C6894882481F8412C512C07C0ED2C87
:1001900005C0AD2CED2C02C0AD2CED2C7894A99BA4
:1001A0000CC0A99A0F5F1F4F083087E0180721F491
:1001B000B8B8C62CEB2C01C0EB2C0E94660088233B
:1001C00081F1E1E0F0E0EC0FFD1FEF0DF11D808308
:1001D000F39424F08A3011F08D3019F546E050E0A8
:1001E00068E670E0CE0101960E943E01892BC1F4C1
:1001F0008DE30E945D0089E08F15E0F51A85812F5F
:100200000E945D00133331F488B8FD2CCB2C042DF3
:10021000152D07C0B8B8FD2CC82C042D152D01C014
:10022000FD2CEE2009F4BACFA3948DE18A1508F0D5
:10023000AECF81E0C81206C0B5B8909494B8AD2C8A
:10024000ED2CACCF82E0C81206C085B8909494B86B
:10025000AD2CED2CA3CF83E0C8129BCF85B873944F
:1002600084E087150CF098CF909494B87D2CAD2C39
:10027000ED2C94CF8EE20E945D00CCCFFB01DC011F
:100280004150504030F08D910590801919F40020B4
:0C029000B9F7881B990B0895F894FFCF74
:00000001FF
